:1000000010C022C021C020C01FC01EC01DC01CC007
:100010001BC01AC019C018C017C016C015C014C024
:1000200013C011241FBECFE5D2E0DEBFCDBF10E06C
:10003000A0E6B0E0E2E9F0E002C005900D92A23641
:10004000B107D9F702D023C0DBCFD09AB99820915D
:10005000600030916100C901817099279195819567
:1000600091098827947B369527958227932790932B
:1000700061008093600080FF02C0D89A01C0D898C8
:100080008FE79EE30197F1F700C00000E0CFF894FE
:02009000FFCFA0
:020092005B0011
:00000001FF
