S011000030345F54696D6572302E737265631F
S113000010C01FC01EC01DC01CC01BC01AC019C018
S113001018C017C016C016C014C013C012C011C037
S113002010C011241FBECFE5D2E0DEBFCDBF20E05B
S1130030A0E6B0E001C01D92A136B207E1F71AD0E4
S113004022C0DECF1F920F920FB60F9211248F930E
S1130050809160008F5F80936000809160008430A5
S113006019F4C89A109260008F910F900FBE0F90F0
S11300701F901895D09A83B7856083BF89B7816034
S10D008089BF7894FFCFF894FFCFF6
S9030000FC
