:1000000010C017C016C016C014C013C012C011C053
:1000100010C00FC00EC00DC00CC00BC00AC009C07C
:1000200008C011241FBECFE5D2E0DEBFCDBF1DD07A
:100030003AC0E6CF1F920F920FB60F9211242F9362
:100040008F939F93D89A2FE38DE093E021508040C7
:100050009040E1F700C00000D8989F918F912F91B8
:100060000F900FBE0F901F90189581E08ABBB99832
:1000700090E29BBF80BD8FEF80B985B7877E80619E
:1000800085BF78942FEB87E299E021508040904023
:10009000E1F700C0000085B7806285BF889585B70D
:0A00A0008F7D85BFEFCFF894FFCFEE
:00000001FF
